:10030200B2CDCCFCCEDECFDFBAF4BDD0CFB5CDB30B
:10031200003120BAC5B2CDD7C0D0E8D2AAB7FECE3E
:10032200F1003220BAC5B2CDD7C0D0E8D2AAB7FE0A
:10033200CEF1003320BAC5B2CDD7C020202020B5DF
:10034200E3B2CD003320BAC5B2CDD7C020202020E1
:10035200BEC6CBAE003220BAC5B2CDD7C020202057
:1003620020B4DFB2CB003320BAC5B2CDD7C0202033
:070372002020C2F2B5A50036
:0A04D200C2C2C2C48FA07F057E00E5
:1004DC00E4FDFCC3ED9FEC9E5016E4FBFA000BBB55
:1004EC0000010AEB64C84A70F40DBD00010C80E3F6
:0104FC0022DD
:0D057B00C2C11204D2D2C41204DCC2C422D8
:0D058800D2C11204D2D2C41204DCC2C422BB
:1004FD00BF01047F808013BF02047F90800CBF0377
:10050D00047F888005BF04027F98EF2DFF02057BD5
:10042200E4F5B3F5B4F596F5957F05FE1204DCD23A
:10043200C57F3012057B1204D87F0C12057B120493
:10044200D87F0112057B1204D8E4F97F0A1204DC7A
:10045200E4FD7F011204FDE990030293FF6006129E
:0504620005880980F28D
:010467002272
:1003D30015331533A833A60408A6051533A833A689
:0303E300071533C8
:1003E600A83308E6FFE4FD1204FDA833E4F6A833BB
:1003F600E6FE0808E6FC08E68C832EF582E43583E3
:10040600F583E493FF600EEEC3941050081205883E
:05041600A8330680D9A7
:07041B00E5332404F5332250
:10054B0020202020202020202020202020202020A0
:02055B0000009E
:10055D00C2821204A412042212046812000680F84A
:03000300020153A4
:10015300C0E0C0F0C083C082C0D075D000C000C072
:1001630001C002C003C004C005C006C00720B26CB2
:0A0173007F1E7E001204DC20B25F44
:10017D00752A00C2A8E5296054D2827FE87E031259
:10018D0004DCC2827C057D4B7F021203D37C057D8E
:10019D004B7F031203D37C057D4B7F041203D3AF3A
:1001AD000A12056DAD2AED3395E0FCC3ED9529746A
:1001BD0080F86C985012740B252AF8E6FF740A2506
:0F01CD002AF8A607052A80DC1529120468D2A893
:1001DC0030B2FDD007D006D005D004D003D002D069
:0E01EC0001D000D0D0D082D083D0F0D0E0324D
:1004A400759A50438E0475D7E075D6FE438E107549
:1004B400AF0175B50175AC1043AC4043D10275D59D
:0E04C400E075D4FE43D108D2AFD288D2A82270
:040286008E2B8F2C00
:10028A00E4F532FFFEAA2BA92C7BFF120536A9073B
:10029A00752DFDE4F52EE92403F52F75300175312E
:1002AA0021E4FEFF742D2FF8E66232F5ADE5AC309D
:1002BA00E1FB53ACFD0FBF00010EEF64054E70E485
:1002CA00E4FEFFE9FDC3EF9DEE9400501FE52C2FDD
:1002DA00F582E52B3EF583E4936232F5ADE5AC3069
:1002EA00E1FB53ACFD0FBF00010E80D78532ADE5AF
:0702FA00AC30E1FB53ACFD49
:0103010022D9
:100046005B7631305D5B6D355D31BAC5B2CDD7C0FB
:10005600D0E8D2AAB7FECEF1005B7631305D5B6D9B
:10006600355D32BAC5B2CDD7C0D0E8D2AAB7FECE7A
:10007600F1005B7631305D5B6D355D33BAC5B2CD6F
:10008600D7C0B5E3B2CD00000000005B7631305D2D
:100096005B6D355D33BAC5B2CDD7C0BEC6CBAE003B
:1000A600000000005B7631305D5B6D355D33BAC5AF
:1000B600B2CDD7C0B4DFB2CB00000000005B763112
:1000C600305D5B6D355D33BAC5B2CDD7C0C2F2B512
:1000D600A50000000000B2CDCCFCCEDECFDFBAF426
:1000E600BDD0CFB5CDB3003120BAC5B2CDD7C0D0C3
:1000F600E8D2AAB7FECEF1003220BAC5B2CDD7C03B
:10010600D0E8D2AAB7FECEF1003320BAC5B2CDD719
:10011600C020202020B5E3B2CD003320BAC5B2CD31
:10012600D7C020202020BEC6CBAE003320BAC5B231
:10013600CDD7C020202020B4DFB2CB003320BAC5F3
:0D014600B2CDD7C020202020C2F2B5A50008
:0905950001290001090001080020
:030043000203793C
:10037900C0E0C0D075D000C000C002C003C006C034
:01038900076C
:10038A00E4FFFEE59A30E032539AFE859B08EFFBC4
:10039A003395E0FAC3EB95297480F86A98500F7484
:1003AA000A2FF8E6B508047E0180030F80E0EE709C
:0A03BA0009740A2529F8A608052990
:0F03C400D007D006D003D002D000D0D0D0E03286
:10046800E52960FCE5296033E4F509752802E5090A
:10047800C395295026E509C39403501F740A25091A
:10048800F8E675F011A424DCF582E43400AD82FCB2
:0C049800AF281203D30509052880D322E9
:10000600E5296038E4F509752802E509C395295004
:100016002BE509C394035024740A2509F8E675F004
:1000260019A4242DF582E43400AF82FE1202867FE5
:0D003600E07E2E1204DC0509052880CE2294
:0E056D008F9BE59A20E1030080F8539AFD224F
:030000000201FA00
:0C01FA00787FE4F6D8FD758133020241E5
:10053600E4FFFE12051D600C0FEF70010E09E97055
:05054600F20A80EF2223
:1002060002055DE493A3F8E493A34003F68001F2AC
:1002160008DFF48029E493A3F85407240CC8C333F9
:10022600C4540F4420C8834004F456800146F6DFC8
:10023600E4800B0102040810204080900595E47EBE
:10024600019360BCA3FF543F30E509541FFEE493BD
:10025600A360010ECF54C025E060A840B8E493A384
:10026600FAE493A3F8E493A3C8C582C8CAC583CAAF
:10027600F0A3C8C582C8CAC583CADFE9DEE780BE67
:01059E00005C
:10051D00BB010689828A83E0225002E722BBFE02DC
:09052D00E32289828A83E493220F
:00000001FF
