:10000300120139E4F594F59320831012005C2083E8
:100013000AC2877F031201653083FD20841012001A
:100023005C20840AC2877F041201653084FD208529
:100033001012005C20850AC2877F05120165308596
:10004300FD20861012005C20860AC2847F061201FE
:09005300653086FD12011A80AF30
:04005C007F1E7E0085
:10006000E4FDFCC3ED9FEC9E5016E4FBFA000BBBD5
:1000700000010AEB64C84A70F40DBD00010C80E376
:01008000225D
:0600810001090001080066
:1001390075AC1043AC4043D10275D5E075D4FE438C
:08014900D10875AF08D2AF2206
:03008B000201511E
:10015100C0E0C2AFE5AC30E00653ACFE85AD09D2DC
:04016100AFD0E03209
:10011A00E509601A64026011E5096403600BE509E8
:0F012A0064046005E509B40602D287E4F50922F2
:0E0165008FADE5AC20E1030080F853ACFD2225
:0300000002008E6D
:0C008E00787FE4F6D8FD7581090200D5EA
:10009A00020003E493A3F8E493A34003F68001F279
:1000AA0008DFF48029E493A3F85407240CC8C33367
:1000BA00C4540F4420C8834004F456800146F6DF36
:1000CA00E4800B0102040810204080900081E47E45
:1000DA00019360BCA3FF543F30E509541FFEE4932B
:1000EA00A360010ECF54C025E060A840B8E493A3F2
:1000FA00FAE493A3F8E493A3C8C582C8CAC583CA1D
:10010A00F0A3C8C582C8CAC583CADFE9DEE780BED4
:010087000078
:00000001FF
