:10000300120048E4F594F5932086147F1E7E0012B7
:10001300002720860AC2847F011200743086FD12F5
:04002300011A80E45A
:10002700E4FDFCC3ED9FEC9E5016E4FBFA000BBB0E
:1000370000010AEB64C84A70F40DBD00010C80E3AF
:010047002296
:0600820001090001080065
:1000480075AC1043AC4043D10275D5E075D4FE437E
:08005800D10875AF08D2AF22F8
:03008B0002006010
:10006000C0E0C2AFE5AC30E00653ACFE85AD09D2CE
:04007000AFD0E032FB
:0D011A00E5096008B40102D284E4F5092271
:0E0074008FADE5AC20E1030080F853ACFD2217
:0300000002008E6D
:0C008E00787FE4F6D8FD7581090200D5EA
:10009A00020003E493A3F8E493A34003F68001F279
:1000AA0008DFF48029E493A3F85407240CC8C33367
:1000BA00C4540F4420C8834004F456800146F6DF36
:1000CA00E4800B0102040810204080900082E47E44
:1000DA00019360BCA3FF543F30E509541FFEE4932B
:1000EA00A360010ECF54C025E060A840B8E493A3F2
:1000FA00FAE493A3F8E493A3C8C582C8CAC583CA1D
:10010A00F0A3C8C582C8CAC583CADFE9DEE780BED4
:010088000077
:00000001FF
